{
	"contracts/datatypes.sol": {
		"datatypes": {
			"abi": [
				{
					"inputs": [],
					"name": "bytea",
					"outputs": [
						{
							"internalType": "bytes1",
							"name": "",
							"type": "bytes1"
						}
					],
					"stateMutability": "view",
					"type": "function"
				},
				{
					"inputs": [],
					"name": "bytesb",
					"outputs": [
						{
							"internalType": "bytes32",
							"name": "",
							"type": "bytes32"
						}
					],
					"stateMutability": "view",
					"type": "function"
				},
				{
					"inputs": [],
					"name": "inta",
					"outputs": [
						{
							"internalType": "int8",
							"name": "",
							"type": "int8"
						}
					],
					"stateMutability": "view",
					"type": "function"
				},
				{
					"inputs": [],
					"name": "intb",
					"outputs": [
						{
							"internalType": "int256",
							"name": "",
							"type": "int256"
						}
					],
					"stateMutability": "view",
					"type": "function"
				},
				{
					"inputs": [],
					"name": "max",
					"outputs": [
						{
							"internalType": "int256",
							"name": "",
							"type": "int256"
						}
					],
					"stateMutability": "view",
					"type": "function"
				},
				{
					"inputs": [],
					"name": "min",
					"outputs": [
						{
							"internalType": "int256",
							"name": "",
							"type": "int256"
						}
					],
					"stateMutability": "view",
					"type": "function"
				},
				{
					"inputs": [],
					"name": "uinta",
					"outputs": [
						{
							"internalType": "uint256",
							"name": "",
							"type": "uint256"
						}
					],
					"stateMutability": "view",
					"type": "function"
				},
				{
					"inputs": [],
					"name": "uintb",
					"outputs": [
						{
							"internalType": "uint8",
							"name": "",
							"type": "uint8"
						}
					],
					"stateMutability": "view",
					"type": "function"
				},
				{
					"inputs": [],
					"name": "uintc",
					"outputs": [
						{
							"internalType": "uint16",
							"name": "",
							"type": "uint16"
						}
					],
					"stateMutability": "view",
					"type": "function"
				},
				{
					"inputs": [],
					"name": "uintd",
					"outputs": [
						{
							"internalType": "uint256",
							"name": "",
							"type": "uint256"
						}
					],
					"stateMutability": "view",
					"type": "function"
				},
				{
					"inputs": [],
					"name": "wallet",
					"outputs": [
						{
							"internalType": "address",
							"name": "",
							"type": "address"
						}
					],
					"stateMutability": "view",
					"type": "function"
				}
			],
			"devdoc": {
				"kind": "dev",
				"methods": {},
				"version": 1
			},
			"evm": {
				"assembly": "    /* \"contracts/datatypes.sol\":68:1391  contract datatypes{... */\n  mstore(0x40, 0x80)\n    /* \"contracts/datatypes.sol\":676:689  type(int).min */\n  0x8000000000000000000000000000000000000000000000000000000000000000\n    /* \"contracts/datatypes.sol\":659:689  int public min = type(int).min */\n  0x05\n  sstore\n    /* \"contracts/datatypes.sol\":713:726  type(int).max */\n  0x7fffffffffffffffffffffffffffffffffffffffffffffffffffffffffffffff\n    /* \"contracts/datatypes.sol\":696:726  int public max = type(int).max */\n  0x06\n  sstore\n    /* \"contracts/datatypes.sol\":1342:1384  0x5B38Da6a701c568545dCfcB03FcB875f56beddC4 */\n  0x5b38da6a701c568545dcfcb03fcb875f56beddc4\n    /* \"contracts/datatypes.sol\":1318:1384  address public wallet = 0x5B38Da6a701c568545dCfcB03FcB875f56beddC4 */\n  0x09\n  exp(0x0100, 0x00)\n  dup2\n  sload\n  dup2\n  0xffffffffffffffffffffffffffffffffffffffff\n  mul\n  not\n  and\n  swap1\n  dup4\n  0xffffffffffffffffffffffffffffffffffffffff\n  and\n  mul\n  or\n  swap1\n  sstore\n  pop\n    /* \"contracts/datatypes.sol\":68:1391  contract datatypes{... */\n  callvalue\n  dup1\n  iszero\n  tag_1\n  jumpi\n  revert(0x00, 0x00)\ntag_1:\n  pop\n  dataSize(sub_0)\n  dup1\n  dataOffset(sub_0)\n  0x00\n  codecopy\n  0x00\n  return\nstop\n\nsub_0: assembly {\n        /* \"contracts/datatypes.sol\":68:1391  contract datatypes{... */\n      mstore(0x40, 0x80)\n      callvalue\n      dup1\n      iszero\n      tag_1\n      jumpi\n      revert(0x00, 0x00)\n    tag_1:\n      pop\n      jumpi(tag_2, lt(calldatasize, 0x04))\n      shr(0xe0, calldataload(0x00))\n      dup1\n      0x4936c494\n      gt\n      tag_14\n      jumpi\n      dup1\n      0x4936c494\n      eq\n      tag_8\n      jumpi\n      dup1\n      0x521eb273\n      eq\n      tag_9\n      jumpi\n      dup1\n      0x6ac5db19\n      eq\n      tag_10\n      jumpi\n      dup1\n      0x8a1a4504\n      eq\n      tag_11\n      jumpi\n      dup1\n      0xee5c9711\n      eq\n      tag_12\n      jumpi\n      dup1\n      0xf8897945\n      eq\n      tag_13\n      jumpi\n      jump(tag_2)\n    tag_14:\n      dup1\n      0x135811a1\n      eq\n      tag_3\n      jumpi\n      dup1\n      0x17163cab\n      eq\n      tag_4\n      jumpi\n      dup1\n      0x214aae78\n      eq\n      tag_5\n      jumpi\n      dup1\n      0x24f759f1\n      eq\n      tag_6\n      jumpi\n      dup1\n      0x330c07fb\n      eq\n      tag_7\n      jumpi\n    tag_2:\n      revert(0x00, 0x00)\n        /* \"contracts/datatypes.sol\":318:338  uint256 public uintd */\n    tag_3:\n      tag_15\n      tag_16\n      jump\t// in\n    tag_15:\n      mload(0x40)\n      tag_17\n      swap2\n      swap1\n      tag_18\n      jump\t// in\n    tag_17:\n      mload(0x40)\n      dup1\n      swap2\n      sub\n      swap1\n      return\n        /* \"contracts/datatypes.sol\":1121:1142  bytes32 public bytesb */\n    tag_4:\n      tag_19\n      tag_20\n      jump\t// in\n    tag_19:\n      mload(0x40)\n      tag_21\n      swap2\n      swap1\n      tag_22\n      jump\t// in\n    tag_21:\n      mload(0x40)\n      dup1\n      swap2\n      sub\n      swap1\n      return\n        /* \"contracts/datatypes.sol\":112:129  uint public uinta */\n    tag_5:\n      tag_23\n      tag_24\n      jump\t// in\n    tag_23:\n      mload(0x40)\n      tag_25\n      swap2\n      swap1\n      tag_18\n      jump\t// in\n    tag_25:\n      mload(0x40)\n      dup1\n      swap2\n      sub\n      swap1\n      return\n        /* \"contracts/datatypes.sol\":239:258  uint16 public uintc */\n    tag_6:\n      tag_26\n      tag_27\n      jump\t// in\n    tag_26:\n      mload(0x40)\n      tag_28\n      swap2\n      swap1\n      tag_29\n      jump\t// in\n    tag_28:\n      mload(0x40)\n      dup1\n      swap2\n      sub\n      swap1\n      return\n        /* \"contracts/datatypes.sol\":531:549  int256 public intb */\n    tag_7:\n      tag_30\n      tag_31\n      jump\t// in\n    tag_30:\n      mload(0x40)\n      tag_32\n      swap2\n      swap1\n      tag_33\n      jump\t// in\n    tag_32:\n      mload(0x40)\n      dup1\n      swap2\n      sub\n      swap1\n      return\n        /* \"contracts/datatypes.sol\":1051:1070  bytes1 public bytea */\n    tag_8:\n      tag_34\n      tag_35\n      jump\t// in\n    tag_34:\n      mload(0x40)\n      tag_36\n      swap2\n      swap1\n      tag_37\n      jump\t// in\n    tag_36:\n      mload(0x40)\n      dup1\n      swap2\n      sub\n      swap1\n      return\n        /* \"contracts/datatypes.sol\":1318:1384  address public wallet = 0x5B38Da6a701c568545dCfcB03FcB875f56beddC4 */\n    tag_9:\n      tag_38\n      tag_39\n      jump\t// in\n    tag_38:\n      mload(0x40)\n      tag_40\n      swap2\n      swap1\n      tag_41\n      jump\t// in\n    tag_40:\n      mload(0x40)\n      dup1\n      swap2\n      sub\n      swap1\n      return\n        /* \"contracts/datatypes.sol\":696:726  int public max = type(int).max */\n    tag_10:\n      tag_42\n      tag_43\n      jump\t// in\n    tag_42:\n      mload(0x40)\n      tag_44\n      swap2\n      swap1\n      tag_33\n      jump\t// in\n    tag_44:\n      mload(0x40)\n      dup1\n      swap2\n      sub\n      swap1\n      return\n        /* \"contracts/datatypes.sol\":164:182  uint8 public uintb */\n    tag_11:\n      tag_45\n      tag_46\n      jump\t// in\n    tag_45:\n      mload(0x40)\n      tag_47\n      swap2\n      swap1\n      tag_48\n      jump\t// in\n    tag_47:\n      mload(0x40)\n      dup1\n      swap2\n      sub\n      swap1\n      return\n        /* \"contracts/datatypes.sol\":482:498  int8 public inta */\n    tag_12:\n      tag_49\n      tag_50\n      jump\t// in\n    tag_49:\n      mload(0x40)\n      tag_51\n      swap2\n      swap1\n      tag_52\n      jump\t// in\n    tag_51:\n      mload(0x40)\n      dup1\n      swap2\n      sub\n      swap1\n      return\n        /* \"contracts/datatypes.sol\":659:689  int public min = type(int).min */\n    tag_13:\n      tag_53\n      tag_54\n      jump\t// in\n    tag_53:\n      mload(0x40)\n      tag_55\n      swap2\n      swap1\n      tag_33\n      jump\t// in\n    tag_55:\n      mload(0x40)\n      dup1\n      swap2\n      sub\n      swap1\n      return\n        /* \"contracts/datatypes.sol\":318:338  uint256 public uintd */\n    tag_16:\n      sload(0x02)\n      dup2\n      jump\t// out\n        /* \"contracts/datatypes.sol\":1121:1142  bytes32 public bytesb */\n    tag_20:\n      sload(0x08)\n      dup2\n      jump\t// out\n        /* \"contracts/datatypes.sol\":112:129  uint public uinta */\n    tag_24:\n      sload(0x00)\n      dup2\n      jump\t// out\n        /* \"contracts/datatypes.sol\":239:258  uint16 public uintc */\n    tag_27:\n      0x01\n      dup1\n      sload\n      swap1\n      0x0100\n      exp\n      swap1\n      div\n      0xffff\n      and\n      dup2\n      jump\t// out\n        /* \"contracts/datatypes.sol\":531:549  int256 public intb */\n    tag_31:\n      sload(0x04)\n      dup2\n      jump\t// out\n        /* \"contracts/datatypes.sol\":1051:1070  bytes1 public bytea */\n    tag_35:\n      0x07\n      0x00\n      swap1\n      sload\n      swap1\n      0x0100\n      exp\n      swap1\n      div\n      0xf8\n      shl\n      dup2\n      jump\t// out\n        /* \"contracts/datatypes.sol\":1318:1384  address public wallet = 0x5B38Da6a701c568545dCfcB03FcB875f56beddC4 */\n    tag_39:\n      0x09\n      0x00\n      swap1\n      sload\n      swap1\n      0x0100\n      exp\n      swap1\n      div\n      0xffffffffffffffffffffffffffffffffffffffff\n      and\n      dup2\n      jump\t// out\n        /* \"contracts/datatypes.sol\":696:726  int public max = type(int).max */\n    tag_43:\n      sload(0x06)\n      dup2\n      jump\t// out\n        /* \"contracts/datatypes.sol\":164:182  uint8 public uintb */\n    tag_46:\n      0x01\n      0x00\n      swap1\n      sload\n      swap1\n      0x0100\n      exp\n      swap1\n      div\n      0xff\n      and\n      dup2\n      jump\t// out\n        /* \"contracts/datatypes.sol\":482:498  int8 public inta */\n    tag_50:\n      0x03\n      0x00\n      swap1\n      sload\n      swap1\n      0x0100\n      exp\n      swap1\n      div\n      0x00\n      signextend\n      dup2\n      jump\t// out\n        /* \"contracts/datatypes.sol\":659:689  int public min = type(int).min */\n    tag_54:\n      sload(0x05)\n      dup2\n      jump\t// out\n        /* \"#utility.yul\":7:84   */\n    tag_56:\n        /* \"#utility.yul\":44:51   */\n      0x00\n        /* \"#utility.yul\":73:78   */\n      dup2\n        /* \"#utility.yul\":62:78   */\n      swap1\n      pop\n        /* \"#utility.yul\":7:84   */\n      swap2\n      swap1\n      pop\n      jump\t// out\n        /* \"#utility.yul\":90:208   */\n    tag_57:\n        /* \"#utility.yul\":177:201   */\n      tag_76\n        /* \"#utility.yul\":195:200   */\n      dup2\n        /* \"#utility.yul\":177:201   */\n      tag_56\n      jump\t// in\n    tag_76:\n        /* \"#utility.yul\":172:175   */\n      dup3\n        /* \"#utility.yul\":165:202   */\n      mstore\n        /* \"#utility.yul\":90:208   */\n      pop\n      pop\n      jump\t// out\n        /* \"#utility.yul\":214:436   */\n    tag_18:\n        /* \"#utility.yul\":307:311   */\n      0x00\n        /* \"#utility.yul\":345:347   */\n      0x20\n        /* \"#utility.yul\":334:343   */\n      dup3\n        /* \"#utility.yul\":330:348   */\n      add\n        /* \"#utility.yul\":322:348   */\n      swap1\n      pop\n        /* \"#utility.yul\":358:429   */\n      tag_78\n        /* \"#utility.yul\":426:427   */\n      0x00\n        /* \"#utility.yul\":415:424   */\n      dup4\n        /* \"#utility.yul\":411:428   */\n      add\n        /* \"#utility.yul\":402:408   */\n      dup5\n        /* \"#utility.yul\":358:429   */\n      tag_57\n      jump\t// in\n    tag_78:\n        /* \"#utility.yul\":214:436   */\n      swap3\n      swap2\n      pop\n      pop\n      jump\t// out\n        /* \"#utility.yul\":442:519   */\n    tag_58:\n        /* \"#utility.yul\":479:486   */\n      0x00\n        /* \"#utility.yul\":508:513   */\n      dup2\n        /* \"#utility.yul\":497:513   */\n      swap1\n      pop\n        /* \"#utility.yul\":442:519   */\n      swap2\n      swap1\n      pop\n      jump\t// out\n        /* \"#utility.yul\":525:643   */\n    tag_59:\n        /* \"#utility.yul\":612:636   */\n      tag_81\n        /* \"#utility.yul\":630:635   */\n      dup2\n        /* \"#utility.yul\":612:636   */\n      tag_58\n      jump\t// in\n    tag_81:\n        /* \"#utility.yul\":607:610   */\n      dup3\n        /* \"#utility.yul\":600:637   */\n      mstore\n        /* \"#utility.yul\":525:643   */\n      pop\n      pop\n      jump\t// out\n        /* \"#utility.yul\":649:871   */\n    tag_22:\n        /* \"#utility.yul\":742:746   */\n      0x00\n        /* \"#utility.yul\":780:782   */\n      0x20\n        /* \"#utility.yul\":769:778   */\n      dup3\n        /* \"#utility.yul\":765:783   */\n      add\n        /* \"#utility.yul\":757:783   */\n      swap1\n      pop\n        /* \"#utility.yul\":793:864   */\n      tag_83\n        /* \"#utility.yul\":861:862   */\n      0x00\n        /* \"#utility.yul\":850:859   */\n      dup4\n        /* \"#utility.yul\":846:863   */\n      add\n        /* \"#utility.yul\":837:843   */\n      dup5\n        /* \"#utility.yul\":793:864   */\n      tag_59\n      jump\t// in\n    tag_83:\n        /* \"#utility.yul\":649:871   */\n      swap3\n      swap2\n      pop\n      pop\n      jump\t// out\n        /* \"#utility.yul\":877:966   */\n    tag_60:\n        /* \"#utility.yul\":913:920   */\n      0x00\n        /* \"#utility.yul\":953:959   */\n      0xffff\n        /* \"#utility.yul\":946:951   */\n      dup3\n        /* \"#utility.yul\":942:960   */\n      and\n        /* \"#utility.yul\":931:960   */\n      swap1\n      pop\n        /* \"#utility.yul\":877:966   */\n      swap2\n      swap1\n      pop\n      jump\t// out\n        /* \"#utility.yul\":972:1087   */\n    tag_61:\n        /* \"#utility.yul\":1057:1080   */\n      tag_86\n        /* \"#utility.yul\":1074:1079   */\n      dup2\n        /* \"#utility.yul\":1057:1080   */\n      tag_60\n      jump\t// in\n    tag_86:\n        /* \"#utility.yul\":1052:1055   */\n      dup3\n        /* \"#utility.yul\":1045:1081   */\n      mstore\n        /* \"#utility.yul\":972:1087   */\n      pop\n      pop\n      jump\t// out\n        /* \"#utility.yul\":1093:1311   */\n    tag_29:\n        /* \"#utility.yul\":1184:1188   */\n      0x00\n        /* \"#utility.yul\":1222:1224   */\n      0x20\n        /* \"#utility.yul\":1211:1220   */\n      dup3\n        /* \"#utility.yul\":1207:1225   */\n      add\n        /* \"#utility.yul\":1199:1225   */\n      swap1\n      pop\n        /* \"#utility.yul\":1235:1304   */\n      tag_88\n        /* \"#utility.yul\":1301:1302   */\n      0x00\n        /* \"#utility.yul\":1290:1299   */\n      dup4\n        /* \"#utility.yul\":1286:1303   */\n      add\n        /* \"#utility.yul\":1277:1283   */\n      dup5\n        /* \"#utility.yul\":1235:1304   */\n      tag_61\n      jump\t// in\n    tag_88:\n        /* \"#utility.yul\":1093:1311   */\n      swap3\n      swap2\n      pop\n      pop\n      jump\t// out\n        /* \"#utility.yul\":1317:1393   */\n    tag_62:\n        /* \"#utility.yul\":1353:1360   */\n      0x00\n        /* \"#utility.yul\":1382:1387   */\n      dup2\n        /* \"#utility.yul\":1371:1387   */\n      swap1\n      pop\n        /* \"#utility.yul\":1317:1393   */\n      swap2\n      swap1\n      pop\n      jump\t// out\n        /* \"#utility.yul\":1399:1514   */\n    tag_63:\n        /* \"#utility.yul\":1484:1507   */\n      tag_91\n        /* \"#utility.yul\":1501:1506   */\n      dup2\n        /* \"#utility.yul\":1484:1507   */\n      tag_62\n      jump\t// in\n    tag_91:\n        /* \"#utility.yul\":1479:1482   */\n      dup3\n        /* \"#utility.yul\":1472:1508   */\n      mstore\n        /* \"#utility.yul\":1399:1514   */\n      pop\n      pop\n      jump\t// out\n        /* \"#utility.yul\":1520:1738   */\n    tag_33:\n        /* \"#utility.yul\":1611:1615   */\n      0x00\n        /* \"#utility.yul\":1649:1651   */\n      0x20\n        /* \"#utility.yul\":1638:1647   */\n      dup3\n        /* \"#utility.yul\":1634:1652   */\n      add\n        /* \"#utility.yul\":1626:1652   */\n      swap1\n      pop\n        /* \"#utility.yul\":1662:1731   */\n      tag_93\n        /* \"#utility.yul\":1728:1729   */\n      0x00\n        /* \"#utility.yul\":1717:1726   */\n      dup4\n        /* \"#utility.yul\":1713:1730   */\n      add\n        /* \"#utility.yul\":1704:1710   */\n      dup5\n        /* \"#utility.yul\":1662:1731   */\n      tag_63\n      jump\t// in\n    tag_93:\n        /* \"#utility.yul\":1520:1738   */\n      swap3\n      swap2\n      pop\n      pop\n      jump\t// out\n        /* \"#utility.yul\":1744:1893   */\n    tag_64:\n        /* \"#utility.yul\":1780:1787   */\n      0x00\n        /* \"#utility.yul\":1820:1886   */\n      0xff00000000000000000000000000000000000000000000000000000000000000\n        /* \"#utility.yul\":1813:1818   */\n      dup3\n        /* \"#utility.yul\":1809:1887   */\n      and\n        /* \"#utility.yul\":1798:1887   */\n      swap1\n      pop\n        /* \"#utility.yul\":1744:1893   */\n      swap2\n      swap1\n      pop\n      jump\t// out\n        /* \"#utility.yul\":1899:2014   */\n    tag_65:\n        /* \"#utility.yul\":1984:2007   */\n      tag_96\n        /* \"#utility.yul\":2001:2006   */\n      dup2\n        /* \"#utility.yul\":1984:2007   */\n      tag_64\n      jump\t// in\n    tag_96:\n        /* \"#utility.yul\":1979:1982   */\n      dup3\n        /* \"#utility.yul\":1972:2008   */\n      mstore\n        /* \"#utility.yul\":1899:2014   */\n      pop\n      pop\n      jump\t// out\n        /* \"#utility.yul\":2020:2238   */\n    tag_37:\n        /* \"#utility.yul\":2111:2115   */\n      0x00\n        /* \"#utility.yul\":2149:2151   */\n      0x20\n        /* \"#utility.yul\":2138:2147   */\n      dup3\n        /* \"#utility.yul\":2134:2152   */\n      add\n        /* \"#utility.yul\":2126:2152   */\n      swap1\n      pop\n        /* \"#utility.yul\":2162:2231   */\n      tag_98\n        /* \"#utility.yul\":2228:2229   */\n      0x00\n        /* \"#utility.yul\":2217:2226   */\n      dup4\n        /* \"#utility.yul\":2213:2230   */\n      add\n        /* \"#utility.yul\":2204:2210   */\n      dup5\n        /* \"#utility.yul\":2162:2231   */\n      tag_65\n      jump\t// in\n    tag_98:\n        /* \"#utility.yul\":2020:2238   */\n      swap3\n      swap2\n      pop\n      pop\n      jump\t// out\n        /* \"#utility.yul\":2244:2370   */\n    tag_66:\n        /* \"#utility.yul\":2281:2288   */\n      0x00\n        /* \"#utility.yul\":2321:2363   */\n      0xffffffffffffffffffffffffffffffffffffffff\n        /* \"#utility.yul\":2314:2319   */\n      dup3\n        /* \"#utility.yul\":2310:2364   */\n      and\n        /* \"#utility.yul\":2299:2364   */\n      swap1\n      pop\n        /* \"#utility.yul\":2244:2370   */\n      swap2\n      swap1\n      pop\n      jump\t// out\n        /* \"#utility.yul\":2376:2472   */\n    tag_67:\n        /* \"#utility.yul\":2413:2420   */\n      0x00\n        /* \"#utility.yul\":2442:2466   */\n      tag_101\n        /* \"#utility.yul\":2460:2465   */\n      dup3\n        /* \"#utility.yul\":2442:2466   */\n      tag_66\n      jump\t// in\n    tag_101:\n        /* \"#utility.yul\":2431:2466   */\n      swap1\n      pop\n        /* \"#utility.yul\":2376:2472   */\n      swap2\n      swap1\n      pop\n      jump\t// out\n        /* \"#utility.yul\":2478:2596   */\n    tag_68:\n        /* \"#utility.yul\":2565:2589   */\n      tag_103\n        /* \"#utility.yul\":2583:2588   */\n      dup2\n        /* \"#utility.yul\":2565:2589   */\n      tag_67\n      jump\t// in\n    tag_103:\n        /* \"#utility.yul\":2560:2563   */\n      dup3\n        /* \"#utility.yul\":2553:2590   */\n      mstore\n        /* \"#utility.yul\":2478:2596   */\n      pop\n      pop\n      jump\t// out\n        /* \"#utility.yul\":2602:2824   */\n    tag_41:\n        /* \"#utility.yul\":2695:2699   */\n      0x00\n        /* \"#utility.yul\":2733:2735   */\n      0x20\n        /* \"#utility.yul\":2722:2731   */\n      dup3\n        /* \"#utility.yul\":2718:2736   */\n      add\n        /* \"#utility.yul\":2710:2736   */\n      swap1\n      pop\n        /* \"#utility.yul\":2746:2817   */\n      tag_105\n        /* \"#utility.yul\":2814:2815   */\n      0x00\n        /* \"#utility.yul\":2803:2812   */\n      dup4\n        /* \"#utility.yul\":2799:2816   */\n      add\n        /* \"#utility.yul\":2790:2796   */\n      dup5\n        /* \"#utility.yul\":2746:2817   */\n      tag_68\n      jump\t// in\n    tag_105:\n        /* \"#utility.yul\":2602:2824   */\n      swap3\n      swap2\n      pop\n      pop\n      jump\t// out\n        /* \"#utility.yul\":2830:2916   */\n    tag_69:\n        /* \"#utility.yul\":2865:2872   */\n      0x00\n        /* \"#utility.yul\":2905:2909   */\n      0xff\n        /* \"#utility.yul\":2898:2903   */\n      dup3\n        /* \"#utility.yul\":2894:2910   */\n      and\n        /* \"#utility.yul\":2883:2910   */\n      swap1\n      pop\n        /* \"#utility.yul\":2830:2916   */\n      swap2\n      swap1\n      pop\n      jump\t// out\n        /* \"#utility.yul\":2922:3034   */\n    tag_70:\n        /* \"#utility.yul\":3005:3027   */\n      tag_108\n        /* \"#utility.yul\":3021:3026   */\n      dup2\n        /* \"#utility.yul\":3005:3027   */\n      tag_69\n      jump\t// in\n    tag_108:\n        /* \"#utility.yul\":3000:3003   */\n      dup3\n        /* \"#utility.yul\":2993:3028   */\n      mstore\n        /* \"#utility.yul\":2922:3034   */\n      pop\n      pop\n      jump\t// out\n        /* \"#utility.yul\":3040:3254   */\n    tag_48:\n        /* \"#utility.yul\":3129:3133   */\n      0x00\n        /* \"#utility.yul\":3167:3169   */\n      0x20\n        /* \"#utility.yul\":3156:3165   */\n      dup3\n        /* \"#utility.yul\":3152:3170   */\n      add\n        /* \"#utility.yul\":3144:3170   */\n      swap1\n      pop\n        /* \"#utility.yul\":3180:3247   */\n      tag_110\n        /* \"#utility.yul\":3244:3245   */\n      0x00\n        /* \"#utility.yul\":3233:3242   */\n      dup4\n        /* \"#utility.yul\":3229:3246   */\n      add\n        /* \"#utility.yul\":3220:3226   */\n      dup5\n        /* \"#utility.yul\":3180:3247   */\n      tag_70\n      jump\t// in\n    tag_110:\n        /* \"#utility.yul\":3040:3254   */\n      swap3\n      swap2\n      pop\n      pop\n      jump\t// out\n        /* \"#utility.yul\":3260:3349   */\n    tag_71:\n        /* \"#utility.yul\":3294:3301   */\n      0x00\n        /* \"#utility.yul\":3337:3342   */\n      dup2\n        /* \"#utility.yul\":3334:3335   */\n      0x00\n        /* \"#utility.yul\":3323:3343   */\n      signextend\n        /* \"#utility.yul\":3312:3343   */\n      swap1\n      pop\n        /* \"#utility.yul\":3260:3349   */\n      swap2\n      swap1\n      pop\n      jump\t// out\n        /* \"#utility.yul\":3355:3464   */\n    tag_72:\n        /* \"#utility.yul\":3436:3457   */\n      tag_113\n        /* \"#utility.yul\":3451:3456   */\n      dup2\n        /* \"#utility.yul\":3436:3457   */\n      tag_71\n      jump\t// in\n    tag_113:\n        /* \"#utility.yul\":3431:3434   */\n      dup3\n        /* \"#utility.yul\":3424:3458   */\n      mstore\n        /* \"#utility.yul\":3355:3464   */\n      pop\n      pop\n      jump\t// out\n        /* \"#utility.yul\":3470:3680   */\n    tag_52:\n        /* \"#utility.yul\":3557:3561   */\n      0x00\n        /* \"#utility.yul\":3595:3597   */\n      0x20\n        /* \"#utility.yul\":3584:3593   */\n      dup3\n        /* \"#utility.yul\":3580:3598   */\n      add\n        /* \"#utility.yul\":3572:3598   */\n      swap1\n      pop\n        /* \"#utility.yul\":3608:3673   */\n      tag_115\n        /* \"#utility.yul\":3670:3671   */\n      0x00\n        /* \"#utility.yul\":3659:3668   */\n      dup4\n        /* \"#utility.yul\":3655:3672   */\n      add\n        /* \"#utility.yul\":3646:3652   */\n      dup5\n        /* \"#utility.yul\":3608:3673   */\n      tag_72\n      jump\t// in\n    tag_115:\n        /* \"#utility.yul\":3470:3680   */\n      swap3\n      swap2\n      pop\n      pop\n      jump\t// out\n\n    auxdata: 0xa2646970667358221220ed5db4206b4378ad5a7a6db4c63cdfd01120d7e25a926c4c204077f67e930ede64736f6c634300081e0033\n}\n",
				"bytecode": {
					"linkReferences": {},
					"object": "60806040527f80000000000000000000000000000000000000000000000000000000000000006005557f7fffffffffffffffffffffffffffffffffffffffffffffffffffffffffffffff600655735b38da6a701c568545dcfcb03fcb875f56beddc460095f6101000a81548173ffffffffffffffffffffffffffffffffffffffff021916908373ffffffffffffffffffffffffffffffffffffffff16021790555034801560aa575f5ffd5b50610494806100b85f395ff3fe608060405234801561000f575f5ffd5b50600436106100a7575f3560e01c80634936c4941161006f5780634936c49414610141578063521eb2731461015f5780636ac5db191461017d5780638a1a45041461019b578063ee5c9711146101b9578063f8897945146101d7576100a7565b8063135811a1146100ab57806317163cab146100c9578063214aae78146100e757806324f759f114610105578063330c07fb14610123575b5f5ffd5b6100b36101f5565b6040516100c0919061029c565b60405180910390f35b6100d16101fb565b6040516100de91906102cd565b60405180910390f35b6100ef610201565b6040516100fc919061029c565b60405180910390f35b61010d610206565b60405161011a9190610302565b60405180910390f35b61012b610218565b6040516101389190610333565b60405180910390f35b61014961021e565b6040516101569190610386565b60405180910390f35b610167610230565b60405161017491906103de565b60405180910390f35b610185610255565b6040516101929190610333565b60405180910390f35b6101a361025b565b6040516101b09190610412565b60405180910390f35b6101c161026d565b6040516101ce9190610445565b60405180910390f35b6101df61027e565b6040516101ec9190610333565b60405180910390f35b60025481565b60085481565b5f5481565b60018054906101000a900461ffff1681565b60045481565b60075f9054906101000a900460f81b81565b60095f9054906101000a900473ffffffffffffffffffffffffffffffffffffffff1681565b60065481565b60015f9054906101000a900460ff1681565b60035f9054906101000a90045f0b81565b60055481565b5f819050919050565b61029681610284565b82525050565b5f6020820190506102af5f83018461028d565b92915050565b5f819050919050565b6102c7816102b5565b82525050565b5f6020820190506102e05f8301846102be565b92915050565b5f61ffff82169050919050565b6102fc816102e6565b82525050565b5f6020820190506103155f8301846102f3565b92915050565b5f819050919050565b61032d8161031b565b82525050565b5f6020820190506103465f830184610324565b92915050565b5f7fff0000000000000000000000000000000000000000000000000000000000000082169050919050565b6103808161034c565b82525050565b5f6020820190506103995f830184610377565b92915050565b5f73ffffffffffffffffffffffffffffffffffffffff82169050919050565b5f6103c88261039f565b9050919050565b6103d8816103be565b82525050565b5f6020820190506103f15f8301846103cf565b92915050565b5f60ff82169050919050565b61040c816103f7565b82525050565b5f6020820190506104255f830184610403565b92915050565b5f815f0b9050919050565b61043f8161042b565b82525050565b5f6020820190506104585f830184610436565b9291505056fea2646970667358221220ed5db4206b4378ad5a7a6db4c63cdfd01120d7e25a926c4c204077f67e930ede64736f6c634300081e0033",
					"opcodes": "PUSH1 0x80 PUSH1 0x40 MSTORE PUSH32 0x8000000000000000000000000000000000000000000000000000000000000000 PUSH1 0x5 SSTORE PUSH32 0x7FFFFFFFFFFFFFFFFFFFFFFFFFFFFFFFFFFFFFFFFFFFFFFFFFFFFFFFFFFFFFFF PUSH1 0x6 SSTORE PUSH20 0x5B38DA6A701C568545DCFCB03FCB875F56BEDDC4 PUSH1 0x9 PUSH0 PUSH2 0x100 EXP DUP2 SLOAD DUP2 PUSH20 0xFFFFFFFFFFFFFFFFFFFFFFFFFFFFFFFFFFFFFFFF MUL NOT AND SWAP1 DUP4 PUSH20 0xFFFFFFFFFFFFFFFFFFFFFFFFFFFFFFFFFFFFFFFF AND MUL OR SWAP1 SSTORE POP CALLVALUE DUP1 ISZERO PUSH1 0xAA JUMPI PUSH0 PUSH0 REVERT JUMPDEST POP PUSH2 0x494 DUP1 PUSH2 0xB8 PUSH0 CODECOPY PUSH0 RETURN INVALID PUSH1 0x80 PUSH1 0x40 MSTORE CALLVALUE DUP1 ISZERO PUSH2 0xF JUMPI PUSH0 PUSH0 REVERT JUMPDEST POP PUSH1 0x4 CALLDATASIZE LT PUSH2 0xA7 JUMPI PUSH0 CALLDATALOAD PUSH1 0xE0 SHR DUP1 PUSH4 0x4936C494 GT PUSH2 0x6F JUMPI DUP1 PUSH4 0x4936C494 EQ PUSH2 0x141 JUMPI DUP1 PUSH4 0x521EB273 EQ PUSH2 0x15F JUMPI DUP1 PUSH4 0x6AC5DB19 EQ PUSH2 0x17D JUMPI DUP1 PUSH4 0x8A1A4504 EQ PUSH2 0x19B JUMPI DUP1 PUSH4 0xEE5C9711 EQ PUSH2 0x1B9 JUMPI DUP1 PUSH4 0xF8897945 EQ PUSH2 0x1D7 JUMPI PUSH2 0xA7 JUMP JUMPDEST DUP1 PUSH4 0x135811A1 EQ PUSH2 0xAB JUMPI DUP1 PUSH4 0x17163CAB EQ PUSH2 0xC9 JUMPI DUP1 PUSH4 0x214AAE78 EQ PUSH2 0xE7 JUMPI DUP1 PUSH4 0x24F759F1 EQ PUSH2 0x105 JUMPI DUP1 PUSH4 0x330C07FB EQ PUSH2 0x123 JUMPI JUMPDEST PUSH0 PUSH0 REVERT JUMPDEST PUSH2 0xB3 PUSH2 0x1F5 JUMP JUMPDEST PUSH1 0x40 MLOAD PUSH2 0xC0 SWAP2 SWAP1 PUSH2 0x29C JUMP JUMPDEST PUSH1 0x40 MLOAD DUP1 SWAP2 SUB SWAP1 RETURN JUMPDEST PUSH2 0xD1 PUSH2 0x1FB JUMP JUMPDEST PUSH1 0x40 MLOAD PUSH2 0xDE SWAP2 SWAP1 PUSH2 0x2CD JUMP JUMPDEST PUSH1 0x40 MLOAD DUP1 SWAP2 SUB SWAP1 RETURN JUMPDEST PUSH2 0xEF PUSH2 0x201 JUMP JUMPDEST PUSH1 0x40 MLOAD PUSH2 0xFC SWAP2 SWAP1 PUSH2 0x29C JUMP JUMPDEST PUSH1 0x40 MLOAD DUP1 SWAP2 SUB SWAP1 RETURN JUMPDEST PUSH2 0x10D PUSH2 0x206 JUMP JUMPDEST PUSH1 0x40 MLOAD PUSH2 0x11A SWAP2 SWAP1 PUSH2 0x302 JUMP JUMPDEST PUSH1 0x40 MLOAD DUP1 SWAP2 SUB SWAP1 RETURN JUMPDEST PUSH2 0x12B PUSH2 0x218 JUMP JUMPDEST PUSH1 0x40 MLOAD PUSH2 0x138 SWAP2 SWAP1 PUSH2 0x333 JUMP JUMPDEST PUSH1 0x40 MLOAD DUP1 SWAP2 SUB SWAP1 RETURN JUMPDEST PUSH2 0x149 PUSH2 0x21E JUMP JUMPDEST PUSH1 0x40 MLOAD PUSH2 0x156 SWAP2 SWAP1 PUSH2 0x386 JUMP JUMPDEST PUSH1 0x40 MLOAD DUP1 SWAP2 SUB SWAP1 RETURN JUMPDEST PUSH2 0x167 PUSH2 0x230 JUMP JUMPDEST PUSH1 0x40 MLOAD PUSH2 0x174 SWAP2 SWAP1 PUSH2 0x3DE JUMP JUMPDEST PUSH1 0x40 MLOAD DUP1 SWAP2 SUB SWAP1 RETURN JUMPDEST PUSH2 0x185 PUSH2 0x255 JUMP JUMPDEST PUSH1 0x40 MLOAD PUSH2 0x192 SWAP2 SWAP1 PUSH2 0x333 JUMP JUMPDEST PUSH1 0x40 MLOAD DUP1 SWAP2 SUB SWAP1 RETURN JUMPDEST PUSH2 0x1A3 PUSH2 0x25B JUMP JUMPDEST PUSH1 0x40 MLOAD PUSH2 0x1B0 SWAP2 SWAP1 PUSH2 0x412 JUMP JUMPDEST PUSH1 0x40 MLOAD DUP1 SWAP2 SUB SWAP1 RETURN JUMPDEST PUSH2 0x1C1 PUSH2 0x26D JUMP JUMPDEST PUSH1 0x40 MLOAD PUSH2 0x1CE SWAP2 SWAP1 PUSH2 0x445 JUMP JUMPDEST PUSH1 0x40 MLOAD DUP1 SWAP2 SUB SWAP1 RETURN JUMPDEST PUSH2 0x1DF PUSH2 0x27E JUMP JUMPDEST PUSH1 0x40 MLOAD PUSH2 0x1EC SWAP2 SWAP1 PUSH2 0x333 JUMP JUMPDEST PUSH1 0x40 MLOAD DUP1 SWAP2 SUB SWAP1 RETURN JUMPDEST PUSH1 0x2 SLOAD DUP2 JUMP JUMPDEST PUSH1 0x8 SLOAD DUP2 JUMP JUMPDEST PUSH0 SLOAD DUP2 JUMP JUMPDEST PUSH1 0x1 DUP1 SLOAD SWAP1 PUSH2 0x100 EXP SWAP1 DIV PUSH2 0xFFFF AND DUP2 JUMP JUMPDEST PUSH1 0x4 SLOAD DUP2 JUMP JUMPDEST PUSH1 0x7 PUSH0 SWAP1 SLOAD SWAP1 PUSH2 0x100 EXP SWAP1 DIV PUSH1 0xF8 SHL DUP2 JUMP JUMPDEST PUSH1 0x9 PUSH0 SWAP1 SLOAD SWAP1 PUSH2 0x100 EXP SWAP1 DIV PUSH20 0xFFFFFFFFFFFFFFFFFFFFFFFFFFFFFFFFFFFFFFFF AND DUP2 JUMP JUMPDEST PUSH1 0x6 SLOAD DUP2 JUMP JUMPDEST PUSH1 0x1 PUSH0 SWAP1 SLOAD SWAP1 PUSH2 0x100 EXP SWAP1 DIV PUSH1 0xFF AND DUP2 JUMP JUMPDEST PUSH1 0x3 PUSH0 SWAP1 SLOAD SWAP1 PUSH2 0x100 EXP SWAP1 DIV PUSH0 SIGNEXTEND DUP2 JUMP JUMPDEST PUSH1 0x5 SLOAD DUP2 JUMP JUMPDEST PUSH0 DUP2 SWAP1 POP SWAP2 SWAP1 POP JUMP JUMPDEST PUSH2 0x296 DUP2 PUSH2 0x284 JUMP JUMPDEST DUP3 MSTORE POP POP JUMP JUMPDEST PUSH0 PUSH1 0x20 DUP3 ADD SWAP1 POP PUSH2 0x2AF PUSH0 DUP4 ADD DUP5 PUSH2 0x28D JUMP JUMPDEST SWAP3 SWAP2 POP POP JUMP JUMPDEST PUSH0 DUP2 SWAP1 POP SWAP2 SWAP1 POP JUMP JUMPDEST PUSH2 0x2C7 DUP2 PUSH2 0x2B5 JUMP JUMPDEST DUP3 MSTORE POP POP JUMP JUMPDEST PUSH0 PUSH1 0x20 DUP3 ADD SWAP1 POP PUSH2 0x2E0 PUSH0 DUP4 ADD DUP5 PUSH2 0x2BE JUMP JUMPDEST SWAP3 SWAP2 POP POP JUMP JUMPDEST PUSH0 PUSH2 0xFFFF DUP3 AND SWAP1 POP SWAP2 SWAP1 POP JUMP JUMPDEST PUSH2 0x2FC DUP2 PUSH2 0x2E6 JUMP JUMPDEST DUP3 MSTORE POP POP JUMP JUMPDEST PUSH0 PUSH1 0x20 DUP3 ADD SWAP1 POP PUSH2 0x315 PUSH0 DUP4 ADD DUP5 PUSH2 0x2F3 JUMP JUMPDEST SWAP3 SWAP2 POP POP JUMP JUMPDEST PUSH0 DUP2 SWAP1 POP SWAP2 SWAP1 POP JUMP JUMPDEST PUSH2 0x32D DUP2 PUSH2 0x31B JUMP JUMPDEST DUP3 MSTORE POP POP JUMP JUMPDEST PUSH0 PUSH1 0x20 DUP3 ADD SWAP1 POP PUSH2 0x346 PUSH0 DUP4 ADD DUP5 PUSH2 0x324 JUMP JUMPDEST SWAP3 SWAP2 POP POP JUMP JUMPDEST PUSH0 PUSH32 0xFF00000000000000000000000000000000000000000000000000000000000000 DUP3 AND SWAP1 POP SWAP2 SWAP1 POP JUMP JUMPDEST PUSH2 0x380 DUP2 PUSH2 0x34C JUMP JUMPDEST DUP3 MSTORE POP POP JUMP JUMPDEST PUSH0 PUSH1 0x20 DUP3 ADD SWAP1 POP PUSH2 0x399 PUSH0 DUP4 ADD DUP5 PUSH2 0x377 JUMP JUMPDEST SWAP3 SWAP2 POP POP JUMP JUMPDEST PUSH0 PUSH20 0xFFFFFFFFFFFFFFFFFFFFFFFFFFFFFFFFFFFFFFFF DUP3 AND SWAP1 POP SWAP2 SWAP1 POP JUMP JUMPDEST PUSH0 PUSH2 0x3C8 DUP3 PUSH2 0x39F JUMP JUMPDEST SWAP1 POP SWAP2 SWAP1 POP JUMP JUMPDEST PUSH2 0x3D8 DUP2 PUSH2 0x3BE JUMP JUMPDEST DUP3 MSTORE POP POP JUMP JUMPDEST PUSH0 PUSH1 0x20 DUP3 ADD SWAP1 POP PUSH2 0x3F1 PUSH0 DUP4 ADD DUP5 PUSH2 0x3CF JUMP JUMPDEST SWAP3 SWAP2 POP POP JUMP JUMPDEST PUSH0 PUSH1 0xFF DUP3 AND SWAP1 POP SWAP2 SWAP1 POP JUMP JUMPDEST PUSH2 0x40C DUP2 PUSH2 0x3F7 JUMP JUMPDEST DUP3 MSTORE POP POP JUMP JUMPDEST PUSH0 PUSH1 0x20 DUP3 ADD SWAP1 POP PUSH2 0x425 PUSH0 DUP4 ADD DUP5 PUSH2 0x403 JUMP JUMPDEST SWAP3 SWAP2 POP POP JUMP JUMPDEST PUSH0 DUP2 PUSH0 SIGNEXTEND SWAP1 POP SWAP2 SWAP1 POP JUMP JUMPDEST PUSH2 0x43F DUP2 PUSH2 0x42B JUMP JUMPDEST DUP3 MSTORE POP POP JUMP JUMPDEST PUSH0 PUSH1 0x20 DUP3 ADD SWAP1 POP PUSH2 0x458 PUSH0 DUP4 ADD DUP5 PUSH2 0x436 JUMP JUMPDEST SWAP3 SWAP2 POP POP JUMP INVALID LOG2 PUSH5 0x6970667358 0x22 SLT KECCAK256 0xED TSTORE 0xB4 KECCAK256 PUSH12 0x4378AD5A7A6DB4C63CDFD011 KECCAK256 0xD7 0xE2 GAS SWAP3 PUSH13 0x4C204077F67E930EDE64736F6C PUSH4 0x4300081E STOP CALLER "
				},
				"gasEstimates": {
					"creation": {
						"codeDepositCost": "234400",
						"executionCost": "68751",
						"totalCost": "303151"
					},
					"external": {
						"bytea()": "2466",
						"bytesb()": "2448",
						"inta()": "2556",
						"intb()": "2514",
						"max()": "2469",
						"min()": "2535",
						"uinta()": "2469",
						"uintb()": "2532",
						"uintc()": "2581",
						"uintd()": "2426",
						"wallet()": "2530"
					}
				},
				"methodIdentifiers": {
					"bytea()": "4936c494",
					"bytesb()": "17163cab",
					"inta()": "ee5c9711",
					"intb()": "330c07fb",
					"max()": "6ac5db19",
					"min()": "f8897945",
					"uinta()": "214aae78",
					"uintb()": "8a1a4504",
					"uintc()": "24f759f1",
					"uintd()": "135811a1",
					"wallet()": "521eb273"
				}
			},
			"storageLayout": {
				"storage": [
					{
						"astId": 3,
						"contract": "contracts/datatypes.sol:datatypes",
						"label": "uinta",
						"offset": 0,
						"slot": "0",
						"type": "t_uint256"
					},
					{
						"astId": 5,
						"contract": "contracts/datatypes.sol:datatypes",
						"label": "uintb",
						"offset": 0,
						"slot": "1",
						"type": "t_uint8"
					},
					{
						"astId": 7,
						"contract": "contracts/datatypes.sol:datatypes",
						"label": "uintc",
						"offset": 1,
						"slot": "1",
						"type": "t_uint16"
					},
					{
						"astId": 9,
						"contract": "contracts/datatypes.sol:datatypes",
						"label": "uintd",
						"offset": 0,
						"slot": "2",
						"type": "t_uint256"
					},
					{
						"astId": 11,
						"contract": "contracts/datatypes.sol:datatypes",
						"label": "inta",
						"offset": 0,
						"slot": "3",
						"type": "t_int8"
					},
					{
						"astId": 13,
						"contract": "contracts/datatypes.sol:datatypes",
						"label": "intb",
						"offset": 0,
						"slot": "4",
						"type": "t_int256"
					},
					{
						"astId": 20,
						"contract": "contracts/datatypes.sol:datatypes",
						"label": "min",
						"offset": 0,
						"slot": "5",
						"type": "t_int256"
					},
					{
						"astId": 27,
						"contract": "contracts/datatypes.sol:datatypes",
						"label": "max",
						"offset": 0,
						"slot": "6",
						"type": "t_int256"
					},
					{
						"astId": 29,
						"contract": "contracts/datatypes.sol:datatypes",
						"label": "bytea",
						"offset": 0,
						"slot": "7",
						"type": "t_bytes1"
					},
					{
						"astId": 31,
						"contract": "contracts/datatypes.sol:datatypes",
						"label": "bytesb",
						"offset": 0,
						"slot": "8",
						"type": "t_bytes32"
					},
					{
						"astId": 34,
						"contract": "contracts/datatypes.sol:datatypes",
						"label": "wallet",
						"offset": 0,
						"slot": "9",
						"type": "t_address"
					}
				],
				"types": {
					"t_address": {
						"encoding": "inplace",
						"label": "address",
						"numberOfBytes": "20"
					},
					"t_bytes1": {
						"encoding": "inplace",
						"label": "bytes1",
						"numberOfBytes": "1"
					},
					"t_bytes32": {
						"encoding": "inplace",
						"label": "bytes32",
						"numberOfBytes": "32"
					},
					"t_int256": {
						"encoding": "inplace",
						"label": "int256",
						"numberOfBytes": "32"
					},
					"t_int8": {
						"encoding": "inplace",
						"label": "int8",
						"numberOfBytes": "1"
					},
					"t_uint16": {
						"encoding": "inplace",
						"label": "uint16",
						"numberOfBytes": "2"
					},
					"t_uint256": {
						"encoding": "inplace",
						"label": "uint256",
						"numberOfBytes": "32"
					},
					"t_uint8": {
						"encoding": "inplace",
						"label": "uint8",
						"numberOfBytes": "1"
					}
				}
			},
			"userdoc": {
				"kind": "user",
				"methods": {},
				"version": 1
			}
		}
	}
}